:100000000C94B2000C94DA000C94DA000C948E017B
:100010000C94B8010C94E2010C94DA000C94DA0010
:100020000C94DA000C94DA000C94DA000C94DA00E8
:100030000C94DA000C94DA000C94DA000C94DA00D8
:100040000C948A070C94DA000C9439050C948705FB
:100050000C94DA000C94DA000C94DA000C94DA00B8
:100060000C94DA000C94DA0000C2010001001100C7
:1000700011000C0000E100000A002500250021000D
:10008000009600001900390039003600127A00008D
:100090001F004600460044008070000022004D0012
:1000A0004D004A00004B00003600750075007200DC
:1000B000403800004A009C009C0099008025000008
:1000C0007200EC00EC00E900C0120000E900DA0167
:1000D000DA01D70160090000D701B603B603B30304
:1000E000B0040000B3036E076E076B0758020000F0
:1000F0006E07DC0EDC0ED80E2C010000DC0EC11DDC
:10010000C11DBE1D00000000240027002A000000C1
:100110000000250028002B0000000000230026001E
:10012000290004040404040404040202020202027A
:1001300003030303030301020408102040800102AB
:10014000040810200102040810200000000700022B
:100150000100000304060000000000000000FB0096
:10016000F306F40011241FBECFEFD8E0DEBFCDBFF1
:1001700011E0A0E0B1E0E2EDF0E102C005900D92E7
:10018000A032B107D9F712E0A0E2B1E001C01D92A0
:10019000A333B107E1F711E0C2E6D1E004C0229732
:1001A000FE010E945808CE35D107C9F70E944907C1
:1001B0000C945C080C9400008130910559F46F5F39
:1001C0007F4F89F480E291E06AE04BE020E00E94FA
:1001D00077040895892B39F46F5F7F4F21F480E213
:1001E00091E00E94FE02089580E090E06FEF7FEFC3
:1001F0000E94DC00089581E090E06FEF7FEF0E94A5
:10020000DC00089588E092E00E944906181619065D
:100210004CF488E092E00E947A06682F80E291E038
:100220000E948207089588E092E040E855E260E08D
:1002300070E00E94C20580E291E040E855E260E093
:1002400070E00E940C0208950F931F93CF93DF93E9
:10025000FC01738D76957170A685B785958577239A
:1002600029F08C91892309F454C004C08C9189230E
:1002700009F04FC08389948920E001972FEF8F3FC9
:100280009207D9F7C589D689A685B785158560E017
:1002900031E040E050E000E0CE01202F01972FEF49
:1002A0008F3F9207D9F78C91812311F0632B03C004
:1002B000832F80956823330F4F5F5F4F4830510580
:1002C00059F78789908D20E001972FEF8F3F920794
:1002D000D9F77111609580917E0120917F0190E0A6
:1002E00001968F73907030E08217930779F0E09158
:1002F0007E01F0E0E25CFE4F608380917E0190E041
:1003000001968F73907080937E0103C0838D81600E
:10031000838FDF91CF911F910F9108951F920F92BC
:100320000FB60F9211242F933F934F935F936F93C8
:100330007F938F939F93AF93BF93EF93FF9380919E
:100340003C0190913D01009711F00E942401FF9122
:10035000EF91BF91AF919F918F917F916F915F913D
:100360004F913F912F910F900FBE0F901F901895B6
:100370001F920F920FB60F9211242F933F934F931A
:100380005F936F937F938F939F93AF93BF93EF93FD
:10039000FF9380913C0190913D01009711F00E94E4
:1003A0002401FF91EF91BF91AF919F918F917F9128
:1003B0006F915F914F913F912F910F900FBE0F90D2
:1003C0001F9018951F920F920FB60F9211242F9322
:1003D0003F934F935F936F937F938F939F93AF93CD
:1003E000BF93EF93FF9380913C0190913D01009763
:1003F00011F00E942401FF91EF91BF91AF919F9165
:100400008F917F916F915F914F913F912F910F90BD
:100410000FBE0F901F901895CF92DF92EF92FF9230
:100420000F931F93CF93DF93EC017A018B011A8E08
:10043000198E188E1F8A1E8A1D8A1C8A1B8A20E02C
:1004400030E06901CC0CDD1CC20ED31EB601660F74
:10045000771F660F771FAB0148595F4FFA018591EF
:100460009591A591B4918E159F05A007B107E9F468
:10047000FB01E459FF4F859194919C8B8B8BFB0181
:10048000E259FF4F859194919E8B8D8BFB01E05932
:10049000FF4F85919491988F8F8BFB01EE58FF4F02
:1004A000859194919A8F898F06C02F5F3F4F2D3091
:1004B000310509F0C6CF8F89988D892B09F449C081
:1004C0004C85463108F03DC090916800483010F4EA
:1004D00084E005C04E3010F082E001C081E0892B3D
:1004E00080936800483028F4EDE6F0E0ADE6B0E037
:1004F0000BC04E3028F0ECE6F0E0ACE6B0E004C013
:10050000EBE6F0E0ABE6B0E05081483040F481E04B
:1005100090E002C0880F991F4A95E2F710C0242F7F
:1005200030E04E3018F42850304002C02E50304099
:1005300081E090E002C0880F991F2A95E2F7852B91
:100540008C93898D9A8D20E001972FEF8F3F920732
:10055000D9F780913C0190913D018C179D0781F066
:100560008B8D8E7F8B8F9FB7F89410927E01809138
:100570007E0180937F01D0933D01C0933C019FBFDA
:10058000DF91CF911F910F91FF90EF90DF90CF906F
:100590000895FC014485463180F5483028F4EDE6A5
:1005A000F0E0ADE6B0E00BC04E3028F4EBE6F0E052
:1005B000ABE6B0E004C0ECE6F0E0ACE6B0E05081C1
:1005C000483040F481E090E002C0880F991F4A95BE
:1005D000E2F710C0242F30E04E3018F4285030409D
:1005E00002C02E50304081E090E002C0880F991F79
:1005F0002A95E2F7809585238C930895FC0184E089
:1006000091E091838083CF010E94C90208952091D7
:100610003C0130913D012817390731F490917F0159
:1006200080917E01981719F42FEF3FEF0FC0E091F2
:100630007F01F0E0E25CFE4F208180917F0190E03D
:1006400001968F73907080937F0130E0C901089507
:1006500020913C0130913D012817390719F020E025
:1006600030E00EC080917E0120917F0190E0805C9F
:100670009F4F821B910960E470E00E940D089C016D
:10068000C90108950F931F93DC0159968D919C9198
:100690005A97892B49F481E090E013969C938E93AE
:1006A000129720E030E097C00FB7F8945B968C91DA
:1006B0005B975196ED91FC91529750962C915097E3
:1006C00081FF8DC08081822B808359968D919C9172
:1006D0005A97059620E001972FEF8F3F9207D9F7A1
:1006E0005B968C915B9781FF35C031E040E050E034
:1006F00070E010E0832F90E0862397235196ED91D0
:10070000FC91529750962C915097892B29F080811B
:1007100020952823208303C08081822B80835996D3
:100720008D919C915A97212F01972FEF8F3F920720
:10073000D9F7330F4F5F5F4F48305105D9F65196C7
:10074000ED91FC915297908150968C9150978095A5
:10075000892333C031E040E050E070E010E0832FA7
:1007600090E0862397235196ED91FC9152975096F5
:100770002C915097892B21F08081822B808304C09B
:10078000808120952823208359968D919C915A979A
:10079000212F01972FEF8F3F9207D9F7330F4F5F2C
:1007A0005F4F48305105D9F65196ED91FC91529723
:1007B000808150969C915097892B80830FBF5996CA
:1007C0008D919C915A9720E001972FEF8F3F9207D0
:1007D000D9F721E030E0C9011F910F910895808180
:1007E00020952823208371CF20913C0130913D0139
:1007F0002817390749F49FB7F89410927E01809129
:100800007E0180937F019FBF089520913C0130912C
:100810003D012817390731F490917F0180917E01C5
:10082000981719F42FEF3FEF0AC0E0917F01F0E035
:10083000E25CFE4F8081282F332727FD3095C901C8
:1008400008951F93CF93DF93EC01162F862F60E05E
:100850000E94A5048B8D81FD04C0812F61E00E9460
:10086000E4041C87212F30E0C9018A5C9E4FFC0103
:1008700084918D872E5D3E4FF9016491E62FF0E063
:10088000EE0FFF1FE85EFE4F859194919F878E8744
:10089000DF91CF911F910895FF920F931F938C01C9
:1008A000F62E862F61E00E94A5048F2D61E00E9444
:1008B000E4048F2D90E0FC01EA5CFE4FE491D80146
:1008C0005096EC9350978E5D9E4FFC016491E62FFD
:1008D000F0E0EE0FFF1FE25FFE4F8591949152967C
:1008E0009C938E9351971F910F91FF900895FF92C3
:1008F0000F931F938C01F62EFC011382128288EE57
:1009000093E0A0E0B0E084839583A683B78384E07E
:1009100091E091838083148A138A168A158A108E37
:10092000178A128E118E838D2170220F8C7F822B5D
:10093000838FC801642F0E944C04C8016F2D0E9450
:1009400021041F910F91FF900895CF93DF93482FBB
:1009500050E0CA018A5C9E4FFC0134914E5D5E4FAF
:10096000FA018491882369F190E0880F991FFC01B6
:10097000EC5FFE4FA591B491FC01E25FFE4FC59183
:10098000D491662351F42FB7F8948C91932F9095BE
:1009900089238C93888189230BC0623061F42FB73F
:1009A000F8948C91932F909589238C938881832B35
:1009B00088832FBF06C09FB7F8948C91832B8C93AC
:1009C0009FBFDF91CF910895482F50E0CA01865B09
:1009D0009E4FFC012491CA018A5C9E4FFC019491B8
:1009E0004E5D5E4FFA013491332309F440C0222357
:1009F00051F1233071F0243028F42130A1F022305D
:100A000011F514C02630B1F02730C1F02430D9F4EC
:100A100004C0809180008F7703C0809180008F7D1B
:100A20008093800010C084B58F7702C084B58F7D1D
:100A300084BD09C08091B0008F7703C08091B00061
:100A40008F7D8093B000E32FF0E0EE0FFF1FE25F99
:100A5000FE4FA591B4912FB7F894662321F48C91A1
:100A60009095892302C08C91892B8C932FBF089578
:100A700008951F920F920FB60F9211242F933F9358
:100A80004F938F939F93EF93FF938091C00082FDCC
:100A90001DC04091C6002091C0013091C1012F5F5F
:100AA0003F4F2F7330708091C2019091C30128177E
:100AB000390771F0E091C001F091C101E058FE4F9B
:100AC00040833093C1012093C00102C08091C600D1
:100AD000FF91EF919F918F914F913F912F910F90A7
:100AE0000FBE0F901F901895E0911402F09115021F
:100AF000E05CFF4F8191919120813181821B930BAA
:100B00008F739070892B11F00E94380508951F9201
:100B10000F920FB60F9211242F933F938F939F93B1
:100B2000EF93FF9320910402309105028091060219
:100B3000909107022817390731F48091C1008F7D09
:100B40008093C10014C0E0910602F0910702EC53BB
:100B5000FE4F2081809106029091070201968F73CB
:100B6000907090930702809306022093C600FF9135
:100B7000EF919F918F913F912F910F900FBE0F900A
:100B80001F901895AF92BF92DF92EF92FF920F9352
:100B90001F93CF93DF93EC017A018B01DD2440306A
:100BA00081EE580780E0680780E0780711F0DD24C7
:100BB000D39491E0A92EB12CEC89FD89DD2069F058
:100BC000C50108A002C0880F991F0A94E2F780832C
:100BD00060E079E08DE390E005C0108260E874E8A1
:100BE0008EE190E0A80197010E942008215030403A
:100BF00040405040569547953795279580E12030E5
:100C0000380720F0DD2011F0DD24D6CFE889F989FE
:100C10003083EA89FB89208319A2EE89FF8940810C
:100C200021E030E0C9010C8C02C0880F991F0A94A2
:100C3000E2F7482B4083EE89FF894081C9010D8C82
:100C400002C0880F991F0A94E2F7482B4083EE896F
:100C5000FF894081C9010E8C02C0880F991F0A9438
:100C6000E2F7482B4083EE89FF8980810F8C02C018
:100C7000220F331F0A94E2F7209528232083DF9167
:100C8000CF911F910F91FF90EF90DF90BF90AF90A9
:100C90000895DC011C96ED91FC911D97E05CFF4FDF
:100CA0002191319180819181281B390B2F733070F4
:100CB000C9010895DC011C96ED91FC911D97E05C43
:100CC000FF4F20813181E054F040DF01AE5BBF4F28
:100CD0008D919C9111972817390719F42FEF3FEF49
:100CE00007C08D919C91E80FF91F8081282F30E07B
:100CF000C9010895DC011C96ED91FC911D97E05C03
:100D0000FF4F20813181E054F040DF01AE5BBF4FE7
:100D10008D919C9111972817390719F42FEF3FEF08
:100D200010C08D919C911197E80FF91F20818D9132
:100D30009C91119701968F73907011969C938E934E
:100D400030E0C9010895DC0191968C919197882338
:100D500039F05496ED91FC915597808186FFF9CF3B
:100D600091961C920895CF93DF93EC01EE85FF8559
:100D7000E05CFF4F20813181E054F0402F5F3F4F16
:100D80002F733070DF01AE5BBF4F8D919C91119737
:100D900028173907D1F3E05CFF4F80819181E0543F
:100DA000F040E80FF91F6083EE85FF85E05CFF4FA0
:100DB00031832083EE89FF89208181E090E00F8CD0
:100DC00002C0880F991F0A94E2F7282B208381E044
:100DD00089A3EC89FD8980818064808381E090E033
:100DE000DF91CF91089510920B0210920A0288EEC3
:100DF00093E0A0E0B0E080930C0290930D02A093EA
:100E00000E02B0930F0284E191E090930902809367
:100E1000080280E891E0909315028093140284EC1C
:100E200091E0909317028093160285EC90E09093E6
:100E300019028093180284EC90E090931B02809337
:100E40001A0280EC90E090931D0280931C0281ECCA
:100E500090E090931F0280931E0282EC90E09093AA
:100E600021028093200286EC90E0909323028093ED
:100E7000220284E08093240283E08093250287E0AD
:100E80008093260285E08093270281E080932802E8
:100E90000895CF93DF930E94D2070E941301C4E705
:100EA000D5E00E9402012097E1F30E947405F9CF7A
:100EB000CF92DF92EF92FF920F931F93CF93DF9326
:100EC0007C016B018A01C0E0D0E00FC0D6016D91BA
:100ED0006D01D701ED91FC910190F081E02DC701EA
:100EE0000995C80FD91F015010400115110571F760
:100EF000CE01DF91CF911F910F91FF90EF90DF9086
:100F0000CF900895DC01ED91FC910190F081E02DEE
:100F1000099508951F920F920FB60F9211242F93E7
:100F20003F938F939F93AF93BF9380912E029091A5
:100F30002F02A0913002B09131023091320201961D
:100F4000A11DB11D232F2D5F2D3720F02D570196A8
:100F5000A11DB11D2093320280932E0290932F0287
:100F6000A0933002B093310280912A0290912B021B
:100F7000A0912C02B0912D020196A11DB11D80936C
:100F80002A0290932B02A0932C02B0932D02BF91C2
:100F9000AF919F918F913F912F910F900FBE0F9026
:100FA0001F901895789484B5826084BD84B5816063
:100FB00084BD85B5826085BD85B5816085BDEEE661
:100FC000F0E0808181608083E1E8F0E01082808140
:100FD00082608083808181608083E0E8F0E08081AE
:100FE00081608083E1EBF0E0808184608083E0EBCE
:100FF000F0E0808181608083EAE7F0E080818460B6
:101000008083808182608083808181608083808111
:10101000806880831092C100089597FB092E0726EF
:101020000AD077FD04D02ED006D000201AF4709597
:1010300061957F4F0895F6F7909581959F4F08959C
:10104000A1E21A2EAA1BBB1BFD010DC0AA1FBB1FCC
:10105000EE1FFF1FA217B307E407F50720F0A21B3E
:10106000B30BE40BF50B661F771F881F991F1A94AB
:1010700069F760957095809590959B01AC01BD01D5
:10108000CF010895AA1BBB1B51E107C0AA1FBB1FBC
:10109000A617B70710F0A61BB70B881F991F5A9504
:1010A000A9F780959095BC01CD010895EE0FFF1F23
:1010B0000590F491E02D099411E0C2E6D1E004C05E
:1010C000FE010E9458082296C436D107C9F7F89449
:0210D000FFCF50
:1010D2000000000042035807280307030504F40335
:1010E20000000000B306580749067A065A06A3060E
:00000001FF
