:100000000C9462000C948A000C948A000C948A0070
:100010000C948A000C948A000C948A000C948A0038
:100020000C948A000C948A000C948A000C948C0026
:100030000C948A000C948A000C948A000C948A0018
:100040000C944D010C948A000C94BD020C940B038B
:100050000C948A000C948A000C948A000C948A00F8
:100060000C948A000C948A000000000024002700F1
:100070002A0000000000250028002B0000000000DE
:1000800023002600290004040404040404040202DA
:100090000202020203030303030301020408102007
:1000A0004080010204081020010204081020000012
:1000B0000007000201000003040600000000000029
:1000C0000000770411241FBECFEFD8E0DEBFCDBF04
:1000D00011E0A0E0B1E0EEE9FAE002C005900D9277
:1000E000AC32B107D9F711E0ACE2B1E001C01D922A
:1000F000A53EB107E1F710E0C4ECD0E004C02297C0
:10010000FE010E944905C23CD107C9F70E94CD04F7
:100110000C944D050C9400001F920F920FB60F9295
:1001200011242F933F934F935F936F937F938F93FC
:100130009F93AF93BF93EF93FF9380912C01909186
:100140002D01892BB1F410922D0110922C01809178
:100150001B01813039F48DE061E00E946802109249
:100160001B0107C08DE060E00E94680281E080937F
:100170001B0180912E0190912F01019690932F01E8
:1001800080932E01FF91EF91BF91AF919F918F913D
:100190007F916F915F914F913F912F910F900FBE83
:1001A0000F901F90189580912E0190912F01039729
:1001B000A9F483EC91E060E071E00E942205809157
:1001C000810087608093810010922F0110922E0190
:1001D00081E090E090933101809330018091300173
:1001E00090913101019779F560E177E280E090E04C
:1001F0000E9495011092310110923001F8941092F2
:10020000800010928100109285001092840083E299
:1002100094EF90938900809388008091810088609A
:10022000809381008091810085608093810080911E
:100230006F00826080936F00789483EC91E06DE0B2
:1002400071E00E94220508958DE061E00E9429027C
:1002500083EC91E040E855E260E070E00E944603E4
:10026000F89410928000E1E8F0E01082109285008E
:100270001092840083E294EF909389008093880029
:10028000808188608083808185608083EFE6F0E0F4
:10029000808182608083789408951F920F920FB6B8
:1002A0000F9211242F933F938F939F93AF93BF93FC
:1002B0008091360190913701A0913801B0913901B8
:1002C00030913A010196A11DB11D232F2D5F2D37CD
:1002D00020F02D570196A11DB11D20933A01809366
:1002E000360190933701A0933801B0933901809182
:1002F000320190913301A0913401B0913501019602
:10030000A11DB11D8093320190933301A09334015C
:10031000B0933501BF91AF919F918F913F912F91F4
:100320000F900FBE0F901F9018959B01AC017FB7E7
:10033000F8948091320190913301A0913401B091F1
:10034000350166B5A89B05C06F3F19F00196A11D48
:10035000B11D7FBFBA2FA92F982F8827860F911D17
:10036000A11DB11D62E0880F991FAA1FBB1F6A95CE
:10037000D1F7BC012DC0FFB7F89480913201909164
:100380003301A0913401B0913501E6B5A89B05C0B9
:10039000EF3F19F00196A11DB11DFFBFBA2FA92F84
:1003A000982F88278E0F911DA11DB11DE2E0880FA7
:1003B000991FAA1FBB1FEA95D1F7861B970B885E72
:1003C0009340C8F2215030404040504068517C4F2B
:1003D000211531054105510571F60895789484B5CC
:1003E000826084BD84B5816084BD85B5826085BD31
:1003F00085B5816085BDEEE6F0E080818160808317
:10040000E1E8F0E0108280818260808380818160F9
:100410008083E0E8F0E0808181608083E1EBF0E0C0
:10042000808184608083E0EBF0E080818160808364
:10043000EAE7F0E08081846080838081826080834D
:100440008081816080838081806880831092C10078
:100450000895CF93DF93482F50E0CA0186569F4FEF
:10046000FC0134914A575F4FFA018491882369F166
:1004700090E0880F991FFC01E859FF4FA591B491B6
:10048000FC01EE58FF4FC591D491662351F42FB76C
:10049000F8948C91932F909589238C93888189234C
:1004A0000BC0623061F42FB7F8948C91932F909524
:1004B00089238C938881832B88832FBF06C09FB7A5
:1004C000F8948C91832B8C939FBFDF91CF910895EB
:1004D000482F50E0CA0182559F4FFC012491CA0168
:1004E00086569F4FFC0194914A575F4FFA01349111
:1004F000332309F440C0222351F1233071F024301A
:1005000028F42130A1F0223011F514C02630B1F0CA
:100510002730C1F02430D9F404C0809180008F7757
:1005200003C0809180008F7D8093800010C084B5CF
:100530008F7702C084B58F7D84BD09C08091B000E3
:100540008F7703C08091B0008F7D8093B000E32F40
:10055000F0E0EE0FFF1FEE58FF4FA591B4912FB7BB
:10056000F894662321F48C919095892302C08C9194
:10057000892B8C932FBF089508951F920F920FB669
:100580000F9211242F933F934F938F939F93EF9349
:10059000FF938091C00082FD1DC04091C600209154
:1005A0007B0130917C012F5F3F4F2F733070809122
:1005B0007D0190917E012817390771F0E0917B0150
:1005C000F0917C01E55CFE4F408330937C012093E9
:1005D0007B0102C08091C600FF91EF919F918F91A6
:1005E0004F913F912F910F900FBE0F901F90189534
:1005F000E091CF01F091D001E05CFF4F81919191AA
:1006000020813181821B930B8F739070892B11F0A5
:100610000E94BC0208951F920F920FB60F921124F0
:100620002F933F938F939F93EF93FF932091BF015D
:100630003091C0018091C1019091C2012817390702
:1006400031F48091C1008F7D8093C10014C0E0918E
:10065000C101F091C201E158FE4F20818091C1019A
:100660009091C20101968F7390709093C201809314
:10067000C1012093C600FF91EF919F918F913F910F
:100680002F910F900FBE0F901F901895AF92BF92B1
:10069000DF92EF92FF920F931F93CF93DF93EC01C2
:1006A0007A018B01DD24403081EE580780E0680735
:1006B00080E0780711F0DD24D39491E0A92EB12CCD
:1006C000EC89FD89DD2069F0C50108A002C0880F12
:1006D000991F0A94E2F7808360E079E08DE390E06F
:1006E00005C0108260E874E88EE190E0A8019701EF
:1006F0000E94250521503040404050405695479576
:100700003795279580E12030380720F0DD2011F063
:10071000DD24D6CFE889F9893083EA89FB892083F3
:1007200019A2EE89FF89408121E030E0C9010C8CDB
:1007300002C0880F991F0A94E2F7482B4083EE8984
:10074000FF894081C9010D8C02C0880F991F0A944E
:10075000E2F7482B4083EE89FF894081C9010E8C66
:1007600002C0880F991F0A94E2F7482B4083EE8954
:10077000FF8980810F8C02C0220F331F0A94E2F799
:10078000209528232083DF91CF911F910F91FF9017
:10079000EF90DF90BF90AF900895DC011C96ED9133
:1007A000FC911D97E05CFF4F2191319180819181F7
:1007B000281B390B2F733070C9010895DC011C967A
:1007C000ED91FC911D97E05CFF4F20813181E05459
:1007D000F040DF01AE5BBF4F8D919C9111972817C0
:1007E000390719F42FEF3FEF07C08D919C91E80F67
:1007F000F91F8081282F30E0C9010895DC011C9683
:10080000ED91FC911D97E05CFF4F20813181E05418
:10081000F040DF01AE5BBF4F8D919C91119728177F
:10082000390719F42FEF3FEF10C08D919C9111976C
:10083000E80FF91F20818D919C91119701968F737C
:10084000907011969C938E9330E0C9010895DC015D
:1008500091968C919197882339F05496ED91FC9163
:100860005597808186FFF9CF91961C920895CF937A
:10087000DF93EC01EE85FF85E05CFF4F2081318145
:10088000E054F0402F5F3F4F2F733070DF01AE5BBD
:10089000BF4F8D919C91119728173907D1F3E05CD8
:1008A000FF4F80819181E054F040E80FF91F608391
:1008B000EE85FF85E05CFF4F31832083EE89FF8961
:1008C000208181E090E00F8C02C0880F991F0A946C
:1008D000E2F7282B208381E089A3EC89FD898081C0
:1008E0008064808381E090E0DF91CF910895109241
:1008F000C6011092C50188EE93E0A0E0B0E08093BD
:10090000C7019093C801A093C901B093CA0180E2C6
:1009100091E09093C4018093C3018BE391E09093A5
:10092000D0018093CF018FE791E09093D201809323
:10093000D10185EC90E09093D4018093D30184ECB5
:1009400090E09093D6018093D50180EC90E0909355
:10095000D8018093D70181EC90E09093DA018093E5
:10096000D90182EC90E09093DC018093DB0186EC6E
:1009700090E09093DE018093DD0184E08093DF01BD
:1009800083E08093E00187E08093E10185E080933C
:10099000E20181E08093E3010895CF93DF930E9409
:1009A000EE010E942401C8EFD2E00E94D3002097FC
:1009B000E1F30E94F802F9CFCF92DF92EF92FF921B
:1009C0000F931F93CF93DF937C016B018A01C0E0EB
:1009D000D0E00FC0D6016D916D01D701ED91FC9172
:1009E0000190F081E02DC7010995C80FD91F015072
:1009F00010400115110571F7CE01DF91CF911F91C4
:100A00000F91FF90EF90DF90CF900895CF93DF93F9
:100A1000EC016115710519F420E030E00FC0DB0135
:100A20000D900020E9F71197A61BB70BE881F9811B
:100A30000280F381E02DAD0109959C01C901DF9190
:100A4000CF9108950E9406050895A1E21A2EAA1BCF
:100A5000BB1BFD010DC0AA1FBB1FEE1FFF1FA2176E
:100A6000B307E407F50720F0A21BB30BE40BF50B6B
:100A7000661F771F881F991F1A9469F760957095F4
:100A8000809590959B01AC01BD01CF010895EE0FBB
:0E0A9000FF1F0590F491E02D0994F894FFCF1C
:100A9E0074696D657231206469733D330074696DDC
:100AAE0065723120656E61626C65000100000000A8
:0C0ABE003704DC04CD03FE03DE03270434
:00000001FF
