:100000000C9462000C948C000C948A000C948A006E
:100010000C948A000C948A000C948A000C948A0038
:100020000C948A000C948A000C948A000C948A0028
:100030000C948A000C948A000C948A000C948A0018
:100040000C94E3000C948A000C94A6020C94F40225
:100050000C948A000C948A000C948A000C948A00F8
:100060000C948A000C948A000000000024002700F1
:100070002A0000000000250028002B0000000000DE
:1000800023002600290004040404040404040202DA
:100090000202020203030303030301020408102007
:1000A0004080010204081020010204081020000012
:1000B0000007000201000003040600000000000029
:1000C0000000600411241FBECFEFD8E0DEBFCDBF1B
:1000D00011E0A0E0B1E0E0EDFAE002C005900D9281
:1000E000A832B107D9F711E0A8E2B1E001C01D9232
:1000F000AD3DB107E1F710E0C4ECD0E004C02297B9
:10010000FE010E946205C23CD107C9F70E94B604F5
:100110000C9466050C9400001F920F920FB60F927C
:1001200011248F9381E0809329018F910F900FBE4E
:100130000F901F901895909129019130F1F48091C2
:1001400028018823D1F49093280168E873E180E0C6
:1001500090E00E942B0182E00E945202892B39F428
:100160008BEB91E060E071E00E942B0508958BEB32
:1001700091E06BE071E00E942B0508958DE061E055
:100180000E94BF018CE061E00E94BF0182E060E05C
:100190000E94BF018DE060E00E94FE018CE060E003
:1001A0000E94FE018BEB91E040E855E260E070E0D8
:1001B0000E942F03F894E9E6F0E08081826080835A
:1001C000E89A789408951F920F920FB60F92112417
:1001D0002F933F938F939F93AF93BF9380912E0163
:1001E00090912F01A0913001B091310130913201F5
:1001F0000196A11DB11D232F2D5F2D3720F02D5706
:100200000196A11DB11D2093320180932E01909380
:100210002F01A0933001B093310180912A01909178
:100220002B01A0912C01B0912D010196A11DB11DB2
:1002300080932A0190932B01A0932C01B0932D0160
:10024000BF91AF919F918F913F912F910F900FBED2
:100250000F901F9018959B01AC017FB7F894809187
:100260002A0190912B01A0912C01B0912D0166B52E
:10027000A89B05C06F3F19F00196A11DB11D7FBF5E
:10028000BA2FA92F982F8827860F911DA11DB11D68
:1002900062E0880F991FAA1FBB1F6A95D1F7BC01A6
:1002A0002DC0FFB7F89480912A0190912B01A09165
:1002B0002C01B0912D01E6B5A89B05C0EF3F19F0C8
:1002C0000196A11DB11DFFBFBA2FA92F982F882716
:1002D0008E0F911DA11DB11DE2E0880F991FAA1F6D
:1002E000BB1FEA95D1F7861B970B885E9340C8F237
:1002F000215030404040504068517C4F211531051D
:100300004105510571F60895789484B5826084BDE5
:1003100084B5816084BD85B5826085BD85B5816009
:1003200085BDEEE6F0E0808181608083E1E8F0E069
:100330001082808182608083808181608083E0E898
:10034000F0E0808181608083E1EBF0E08081846077
:100350008083E0EBF0E0808181608083EAE7F0E079
:1003600080818460808380818260808380818160DD
:1003700080838081806880831092C1000895CF932C
:10038000DF93482F50E0CA0186569F4FFC013491FD
:100390004A575F4FFA018491882369F190E0880FF2
:1003A000991FFC01E859FF4FA591B491FC01EE584B
:1003B000FF4FC591D491662351F42FB7F8948C91D7
:1003C000932F909589238C93888189230BC0623069
:1003D00061F42FB7F8948C91932F909589238C9387
:1003E0008881832B88832FBF06C09FB7F8948C9198
:1003F000832B8C939FBFDF91CF910895482F50E0BE
:10040000CA0182559F4FFC012491CA0186569F4F15
:10041000FC0194914A575F4FFA013491332309F458
:1004200040C0222351F1233071F0243028F42130D0
:10043000A1F0223011F514C02630B1F02730C1F000
:100440002430D9F404C0809180008F7703C080915C
:1004500080008F7D8093800010C084B58F7702C0AC
:1004600084B58F7D84BD09C08091B0008F7703C0B3
:100470008091B0008F7D8093B000E32FF0E0EE0F0D
:10048000FF1FEE58FF4FA591B4912FB7F894662344
:1004900021F48C919095892302C08C91892B8C93A7
:1004A0002FBF0895682F70E0CB0182559F4FFC014C
:1004B0002491CB0186569F4FFC0144916A577F4F90
:1004C000FB019491992319F420E030E03CC02223F1
:1004D00051F1233071F0243028F42130A1F0223082
:1004E00011F514C02630B1F02730C1F02430D9F412
:1004F00004C0809180008F7703C0809180008F7D41
:100500008093800010C084B58F7702C084B58F7D42
:1005100084BD09C08091B0008F7703C08091B00086
:100520008F7D8093B000892F90E0880F991F8458A9
:100530009F4FFC01A591B4918C9120E030E0842381
:1005400011F021E030E0C901089508951F920F9243
:100550000FB60F9211242F933F934F938F939F9336
:10056000EF93FF938091C00082FD1DC04091C600B3
:1005700020917301309174012F5F3F4F2F733070C2
:1005800080917501909176012817390771F0E091FB
:100590007301F0917401ED5CFE4F40833093740160
:1005A0002093730102C08091C600FF91EF919F914B
:1005B0008F914F913F912F910F900FBE0F901F90F1
:1005C0001895E091C701F091C801E05CFF4F81915F
:1005D000919120813181821B930B8F739070892BB5
:1005E00011F00E94A50208951F920F920FB60F926C
:1005F00011242F933F938F939F93EF93FF93209119
:10060000B7013091B8018091B9019091BA012817D2
:10061000390731F48091C1008F7D8093C10014C0EF
:10062000E091B901F091BA01E958FE4F2081809123
:10063000B9019091BA0101968F7390709093BA01AD
:100640008093B9012093C600FF91EF919F918F9104
:100650003F912F910F900FBE0F901F901895AF9262
:10066000BF92DF92EF92FF920F931F93CF93DF938E
:10067000EC017A018B01DD24403081EE580780E0E7
:10068000680780E0780711F0DD24D39491E0A92E6B
:10069000B12CEC89FD89DD2069F0C50108A002C0FC
:1006A000880F991F0A94E2F7808360E079E08DE378
:1006B00090E005C0108260E874E88EE190E0A80147
:1006C00097010E943E0521503040404050405695D1
:1006D00047953795279580E12030380720F0DD20B9
:1006E00011F0DD24D6CFE889F9893083EA89FB89C6
:1006F000208319A2EE89FF89408121E030E0C90101
:100700000C8C02C0880F991F0A94E2F7482B408393
:10071000EE89FF894081C9010D8C02C0880F991FA5
:100720000A94E2F7482B4083EE89FF894081C90192
:100730000E8C02C0880F991F0A94E2F7482B408361
:10074000EE89FF8980810F8C02C0220F331F0A942B
:10075000E2F7209528232083DF91CF911F910F91FD
:10076000FF90EF90DF90BF90AF900895DC011C9652
:10077000ED91FC911D97E05CFF4F219131918081BB
:100780009181281B390B2F733070C9010895DC014A
:100790001C96ED91FC911D97E05CFF4F208131810B
:1007A000E054F040DF01AE5BBF4F8D919C911197FB
:1007B0002817390719F42FEF3FEF07C08D919C914F
:1007C000E80FF91F8081282F30E0C9010895DC016E
:1007D0001C96ED91FC911D97E05CFF4F20813181CB
:1007E000E054F040DF01AE5BBF4F8D919C911197BB
:1007F0002817390719F42FEF3FEF10C08D919C9106
:100800001197E80FF91F20818D919C911197019606
:100810008F73907011969C938E9330E0C901089568
:10082000DC0191968C919197882339F05496ED9143
:10083000FC915597808186FFF9CF91961C9208957F
:10084000CF93DF93EC01EE85FF85E05CFF4F2081C5
:100850003181E054F0402F5F3F4F2F733070DF0144
:10086000AE5BBF4F8D919C91119728173907D1F33B
:10087000E05CFF4F80819181E054F040E80FF91F68
:100880006083EE85FF85E05CFF4F31832083EE8936
:10089000FF89208181E090E00F8C02C0880F991FB2
:1008A0000A94E2F7282B208381E089A3EC89FD8953
:1008B00080818064808381E090E0DF91CF91089512
:1008C0001092BE011092BD0188EE93E0A0E0B0E06E
:1008D0008093BF019093C001A093C101B093C20166
:1008E0008BE191E09093BC018093BB0183E391E0A5
:1008F0009093C8018093C70187E791E09093CA0164
:100900008093C90185EC90E09093CC018093CB015A
:1009100084EC90E09093CE018093CD0180EC90E048
:100920009093D0018093CF0181EC90E09093D2011D
:100930008093D10182EC90E09093D4018093D30115
:1009400086EC90E09093D6018093D50184E080936B
:10095000D70183E08093D80187E08093D90185E0B7
:100960008093DA0181E08093DB010895CF93DF93D8
:100970000E9484010E94BE00C1EED2E00E949B0052
:100980002097E1F30E94E102F9CFCF92DF92EF923C
:10099000FF920F931F93CF93DF937C016B018A012A
:1009A000C0E0D0E00FC0D6016D916D01D701ED918F
:1009B000FC910190F081E02DC7010995C80FD91F66
:1009C000015010400115110571F7CE01DF91CF9153
:1009D0001F910F91FF90EF90DF90CF900895EF92CD
:1009E000FF920F931F938C01DC01ED91FC9101901C
:1009F000F081E02D6DE009957C01D801ED91FC912D
:100A00000190F081E02DC8016AE009959C012E0D4E
:100A10003F1DC9011F910F91FF90EF900895CF9353
:100A2000DF93EC016115710519F420E030E00FC08F
:100A3000DB010D900020E9F71197A61BB70BE881A9
:100A4000F9810280F381E02DAD0109959C01C90176
:100A5000DF91CF910895EF92FF920F931F937C0146
:100A60000E940F058C01C7010E94EF04080F191F97
:100A7000C8011F910F91FF90EF900895A1E21A2EE7
:100A8000AA1BBB1BFD010DC0AA1FBB1FEE1FFF1F32
:100A9000A217B307E407F50720F0A21BB30BE40B82
:100AA000F50B661F771F881F991F1A9469F76095C9
:100AB0007095809590959B01AC01BD01CF01089583
:100AC000EE0FFF1F0590F491E02D0994F894FFCFED
:100AD0004C6F6E672070726573730073686F727409
:100AE00020707265737300000000002004C504B616
:080AF00003E703C70310040033
:00000001FF
