:100000000C94B2000C94DA000C94DA000C94DC012D
:100010000C9406020C9430020C94DA000C94DA0072
:100020000C94DA000C94DA000C94DA000C94DA00E8
:100030000C94DA000C94DA000C94DA000C94DA00D8
:100040000C94F3040C94DA000C9463060C94B1063F
:100050000C94DA000C94DA000C94DA000C94DA00B8
:100060000C94DA000C94DA0000C2010001001100C7
:1000700011000C0000E100000A002500250021000D
:10008000009600001900390039003600127A00008D
:100090001F004600460044008070000022004D0012
:1000A0004D004A00004B00003600750075007200DC
:1000B000403800004A009C009C0099008025000008
:1000C0007200EC00EC00E900C0120000E900DA0167
:1000D000DA01D70160090000D701B603B603B30304
:1000E000B0040000B3036E076E076B0758020000F0
:1000F0006E07DC0EDC0ED80E2C010000DC0EC11DDC
:10010000C11DBE1D00000000240027002A000000C1
:100110000000250028002B0000000000230026001E
:10012000290004040404040404040202020202027A
:1001300003030303030301020408102040800102AB
:10014000040810200102040810200000000700022B
:100150000100000304060000000000000000FB0096
:100160001D08F40011241FBECFEFD8E0DEBFCDBFC5
:1001700011E0A0E0B1E0E2E8F4E102C005900D92E8
:10018000AA34B107D9F712E0AAE4B1E001C01D9288
:10019000AF35B107E1F711E0C2E6D1E004C0229724
:1001A000FE010E94300ACE35D107C9F70E947308BC
:1001B0000C94340A0C9400008130910559F46F5F5F
:1001C0007F4F89F48AE491E06AE04BE020E00E94EE
:1001D000C5040895892B39F46F5F7F4F21F48AE4B9
:1001E00091E00E944C03089580E090E06FEF7FEF74
:1001F0000E94DC00089581E090E06FEF7FEF0E94A5
:10020000DC0008958AE491E00E947603181619062E
:100210004CF48AE491E00E945503682F8DE392E04C
:100220000E94AC080895109267011092660115C0F3
:100230008AE491E04AE050E00E94940968EE73E09D
:1002400080E090E00E943B058091660190916701FB
:1002500001969093670180936601609166017091A9
:1002600067016230710524F31092670110926601F4
:1002700019C0EE0FFF1FE05EFE4F608171818AE4BE
:1002800091E00E94B30968EE73E080E090E00E9484
:100290003B058091660190916701019690936701FB
:1002A00080936601E0916601F0916701E230F1050B
:1002B00004F30E94020108958DE392E040E855E2C4
:1002C00060E070E00E94EC068AE491E040E855E2CC
:1002D00060E070E00E945A0280911E0161E00E947D
:1002E000CF0508950F931F93CF93DF93FC01738D78
:1002F00076957170A685B7859585772329F08C91C1
:10030000892309F454C004C08C91892309F04FC09B
:100310008389948920E001972FEF8F3F9207D9F7C7
:10032000C589D689A685B785158560E031E040E0AE
:1003300050E000E0CE01202F01972FEF8F3F920772
:10034000D9F78C91812311F0632B03C0832F809503
:100350006823330F4F5F5F4F4830510559F7878946
:10036000908D20E001972FEF8F3F9207D9F7711101
:1003700060958091AA012091AB0190E001968F7366
:10038000907030E08217930779F0E091AA01F0E0D5
:10039000E659FE4F60838091AA0190E001968F7329
:1003A00090708093AA0103C0838D8160838FDF9159
:1003B000CF911F910F9108951F920F920FB60F9238
:1003C00011242F933F934F935F936F937F938F935A
:1003D0009F93AF93BF93EF93FF93809168019091A8
:1003E0006901009711F00E947201FF91EF91BF9196
:1003F000AF919F918F917F916F915F914F913F91BD
:100400002F910F900FBE0F901F9018951F920F9273
:100410000FB60F9211242F933F934F935F936F93D7
:100420007F938F939F93AF93BF93EF93FF938091AD
:10043000680190916901009711F00E947201FF918B
:10044000EF91BF91AF919F918F917F916F915F914C
:100450004F913F912F910F900FBE0F901F901895C5
:100460001F920F920FB60F9211242F933F934F9329
:100470005F936F937F938F939F93AF93BF93EF930C
:10048000FF938091680190916901009711F00E949B
:100490007201FF91EF91BF91AF919F918F917F91E9
:1004A0006F915F914F913F912F910F900FBE0F90E1
:1004B0001F901895CF92DF92EF92FF920F931F93A8
:1004C000CF93DF93EC017A018B011A8E198E188E6F
:1004D0001F8A1E8A1D8A1C8A1B8A20E030E069015F
:1004E000CC0CDD1CC20ED31EB601660F771F660F43
:1004F000771FAB0148595F4FFA0185919591A591FE
:10050000B4918E159F05A007B107E9F4FB01E459EA
:10051000FF4F859194919C8B8B8BFB01E259FF4F90
:10052000859194919E8B8D8BFB01E059FF4F8591B6
:100530009491988F8F8BFB01EE58FF4F859194918A
:100540009A8F898F06C02F5F3F4F2D30310509F0FC
:10055000C6CF8F89988D892B09F449C04C854631C7
:1005600008F03DC090916800483010F484E005C068
:100570004E3010F082E001C081E0892B809368004A
:10058000483028F4EDE6F0E0ADE6B0E00BC04E30C8
:1005900028F0ECE6F0E0ACE6B0E004C0EBE6F0E01A
:1005A000ABE6B0E05081483040F481E090E002C01A
:1005B000880F991F4A95E2F710C0242F30E04E3083
:1005C00018F42850304002C02E50304081E090E0B6
:1005D00002C0880F991F2A95E2F7852B8C93898D8D
:1005E0009A8D20E001972FEF8F3F9207D9F78091E6
:1005F0006801909169018C179D0781F08B8D8E7F2A
:100600008B8F9FB7F8941092AA018091AA018093D2
:10061000AB01D0936901C09368019FBFDF91CF9177
:100620001F910F91FF90EF90DF90CF900895FC0104
:100630004485463180F5483028F4EDE6F0E0ADE63B
:10064000B0E00BC04E3028F4EBE6F0E0ABE6B0E0F3
:1006500004C0ECE6F0E0ACE6B0E05081483040F495
:1006600081E090E002C0880F991F4A95E2F710C020
:10067000242F30E04E3018F42850304002C02E5065
:10068000304081E090E002C0880F991F2A95E2F780
:10069000809585238C930895FC018EE291E09183EF
:1006A0008083CF010E941703089520916801309143
:1006B00069012817390731F49091AB018091AA01A3
:1006C000981719F42FEF3FEF0FC0E091AB01F0E066
:1006D000E659FE4F20818091AB0190E001968F7327
:1006E00090708093AB0130E0C901089520916801BA
:1006F000309169012817390719F020E030E00EC069
:100700008091AA012091AB0190E0805C9F4F821BF9
:10071000910960E470E00E94E5099C01C901089517
:100720000F931F93DC0159968D919C915A97892BB9
:1007300049F481E090E013969C938E93129720E009
:1007400030E097C00FB7F8945B968C915B97519609
:10075000ED91FC91529750962C91509781FF8DC04E
:100760008081822B808359968D919C915A97059612
:1007700020E001972FEF8F3F9207D9F75B968C917E
:100780005B9781FF35C031E040E050E070E010E061
:10079000832F90E0862397235196ED91FC915297F9
:1007A00050962C915097892B29F0808120952823F1
:1007B000208303C08081822B808359968D919C91E8
:1007C0005A97212F01972FEF8F3F9207D9F7330FB9
:1007D0004F5F5F4F48305105D9F65196ED91FC912E
:1007E0005297908150968C9150978095892333C071
:1007F00031E040E050E070E010E0832F90E086238D
:1008000097235196ED91FC91529750962C915097C9
:10081000892B21F08081822B808304C080812095E8
:100820002823208359968D919C915A97212F0197C7
:100830002FEF8F3F9207D9F7330F4F5F5F4F48304D
:100840005105D9F65196ED91FC91529780815096C1
:100850009C915097892B80830FBF59968D919C91C5
:100860005A9720E001972FEF8F3F9207D9F721E0A9
:1008700030E0C9011F910F910895808120952823B0
:10088000208371CF209168013091690128173907C1
:1008900049F49FB7F8941092AA018091AA0180931D
:1008A000AB019FBF0895209168013091690128171D
:1008B000390731F49091AB018091AA01981719F48E
:1008C0002FEF3FEF0AC0E091AB01F0E0E659FE4F99
:1008D0008081282F332727FD3095C90108951F9364
:1008E000CF93DF93EC01162F862F60E00E94CF0597
:1008F0008B8D81FD04C0812F61E00E940E061C8754
:10090000212F30E0C9018A5C9E4FFC0184918D87C4
:100910002E5D3E4FF9016491E62FF0E0EE0FFF1FD0
:10092000E85EFE4F859194919F878E87DF91CF91EE
:100930001F910895FF920F931F938C01F62E862F1F
:1009400061E00E94CF058F2D61E00E940E068F2D81
:1009500090E0FC01EA5CFE4FE491D8015096EC93E4
:1009600050978E5D9E4FFC016491E62FF0E0EE0FF4
:10097000FF1FE25FFE4F8591949152969C938E9358
:1009800051971F910F91FF900895FF920F931F931E
:100990008C01F62EFC011382128288EE93E0A0E017
:1009A000B0E084839583A683B7838EE291E0918340
:1009B0008083148A138A168A158A108E178A128EDB
:1009C000118E838D2170220F8C7F822B838FC80123
:1009D000642F0E949A04C8016F2D0E946F041F911A
:1009E0000F91FF9008951F920F920FB60F9211244E
:1009F0002F933F938F939F93AF93BF938091B001B9
:100A00009091B101A091B201B091B3013091B401C4
:100A10000196A11DB11D232F2D5F2D3720F02D57DD
:100A20000196A11DB11D2093B4018093B001909354
:100A3000B101A093B201B093B3018091AC01909148
:100A4000AD01A091AE01B091AF010196A11DB11D04
:100A50008093AC019093AD01A093AE01B093AF0130
:100A6000BF91AF919F918F913F912F910F900FBEAA
:100A70000F901F9018959B01AC017FB7F89480915F
:100A8000AC019091AD01A091AE01B091AF0166B5FE
:100A9000A89B05C06F3F19F00196A11DB11D7FBF36
:100AA000BA2FA92F982F8827860F911DA11DB11D40
:100AB00062E0880F991FAA1FBB1F6A95D1F7BC017E
:100AC0002DC0FFB7F8948091AC019091AD01A09139
:100AD000AE01B091AF01E6B5A89B05C0EF3F19F09C
:100AE0000196A11DB11DFFBFBA2FA92F982F8827EE
:100AF0008E0F911DA11DB11DE2E0880F991FAA1F45
:100B0000BB1FEA95D1F7861B970B885E9340C8F20E
:100B1000215030404040504068517C4F21153105F4
:100B20004105510571F60895789484B5826084BDBD
:100B300084B5816084BD85B5826085BD85B58160E1
:100B400085BDEEE6F0E0808181608083E1E8F0E041
:100B50001082808182608083808181608083E0E870
:100B6000F0E0808181608083E1EBF0E0808184604F
:100B70008083E0EBF0E0808181608083EAE7F0E051
:100B800080818460808380818260808380818160B5
:100B900080838081806880831092C1000895CF9304
:100BA000DF93482F50E0CA018A5C9E4FFC013491CC
:100BB0004E5D5E4FFA018491882369F190E0880FC1
:100BC000991FFC01EC5FFE4FA591B491FC01E25F1F
:100BD000FE4FC591D491662351F42FB7F8948C91B0
:100BE000932F909589238C93888189230BC0623041
:100BF00061F42FB7F8948C91932F909589238C935F
:100C00008881832B88832FBF06C09FB7F8948C916F
:100C1000832B8C939FBFDF91CF910895482F50E095
:100C2000CA01865B9E4FFC012491CA018A5C9E4FDB
:100C3000FC0194914E5D5E4FFA013491332309F427
:100C400040C0222351F1233071F0243028F42130A8
:100C5000A1F0223011F514C02630B1F02730C1F0D8
:100C60002430D9F404C0809180008F7703C0809134
:100C700080008F7D8093800010C084B58F7702C084
:100C800084B58F7D84BD09C08091B0008F7703C08B
:100C90008091B0008F7D8093B000E32FF0E0EE0FE5
:100CA000FF1FE25FFE4FA591B4912FB7F894662322
:100CB00021F48C919095892302C08C91892B8C937F
:100CC0002FBF089508951F920F920FB60F9211240F
:100CD0002F933F934F938F939F93EF93FF93809125
:100CE000C00082FD1DC04091C6002091F5013091E9
:100CF000F6012F5F3F4F2F7330708091F701909175
:100D0000F8012817390771F0E091F501F091F6012B
:100D1000EB54FE4F40833093F6012093F50102C05F
:100D20008091C600FF91EF919F918F914F913F91DC
:100D30002F910F900FBE0F901F901895E0914902D0
:100D4000F0914A02E05CFF4F8191919120813181C5
:100D5000821B930B8F739070892B11F00E94620697
:100D600008951F920F920FB60F9211242F933F9365
:100D70008F939F93EF93FF932091390230913A0222
:100D800080913B0290913C022817390731F4809101
:100D9000C1008F7D8093C10014C0E0913B02F091AF
:100DA0003C02E750FE4F208180913B0290913C0233
:100DB00001968F73907090933C0280933B02209336
:100DC000C600FF91EF919F918F913F912F910F90CE
:100DD0000FBE0F901F901895AF92BF92DF92EF92C7
:100DE000FF920F931F93CF93DF93EC017A018B0156
:100DF000DD24403081EE580780E0680780E0780706
:100E000011F0DD24D39491E0A92EB12CEC89FD8959
:100E1000DD2069F0C50108A002C0880F991F0A945F
:100E2000E2F7808360E079E08DE390E005C0108216
:100E300060E874E88EE190E0A80197010E94F8094B
:100E40002150304040405040569547953795279562
:100E500080E12030380720F0DD2011F0DD24D6CFEE
:100E6000E889F9893083EA89FB89208319A2EE8910
:100E7000FF89408121E030E0C9010C8C02C0880F5D
:100E8000991F0A94E2F7482B4083EE89FF8940813D
:100E9000C9010D8C02C0880F991F0A94E2F7482BF4
:100EA0004083EE89FF894081C9010E8C02C0880F02
:100EB000991F0A94E2F7482B4083EE89FF898081CD
:100EC0000F8C02C0220F331F0A94E2F720952823CB
:100ED0002083DF91CF911F910F91FF90EF90DF90D2
:100EE000BF90AF900895DC011C96ED91FC911D9789
:100EF000E05CFF4F2191319180819181281B390B5A
:100F00002F733070C9010895DC011C96ED91FC919E
:100F10001D97E05CFF4F20813181E054F040DF01FC
:100F2000AE5BBF4F8D919C9111972817390719F42B
:100F30002FEF3FEF07C08D919C91E80FF91F808143
:100F4000282F30E0C9010895DC011C96ED91FC9139
:100F50001D97E05CFF4F20813181E054F040DF01BC
:100F6000AE5BBF4F8D919C9111972817390719F4EB
:100F70002FEF3FEF10C08D919C911197E80FF91F53
:100F800020818D919C91119701968F73907011968D
:100F90009C938E9330E0C9010895DC0191968C9169
:100FA0009197882339F05496ED91FC915597808163
:100FB00086FFF9CF91961C920895CF93DF93EC01B1
:100FC000EE85FF85E05CFF4F20813181E054F040E9
:100FD0002F5F3F4F2F733070DF01AE5BBF4F8D919E
:100FE0009C91119728173907D1F3E05CFF4F80815E
:100FF0009181E054F040E80FF91F6083EE85FF8592
:10100000E05CFF4F31832083EE89FF89208181E0FE
:1010100090E00F8C02C0880F991F0A94E2F7282BEA
:10102000208381E089A3EC89FD89808180648083AD
:1010300081E090E0DF91CF910895109240021092EC
:101040003F0288EE93E0A0E0B0E0809341029093ED
:101050004202A0934302B09344028EE391E0909346
:101060003E0280933D0285EB91E090934A0280938B
:10107000490289EF91E090934C0280934B0285ECFA
:1010800090E090934E0280934D0284EC90E0909318
:10109000500280934F0280EC90E090935202809334
:1010A000510281EC90E0909354028093530282ECC1
:1010B00090E0909356028093550286EC90E09093D6
:1010C00058028093570284E08093590283E0809312
:1010D0005A0287E080935B0285E080935C0281E0A6
:1010E00080935D020895CF93DF930E9494050E9440
:1010F0005C01CEE9D6E00E9413012097E1F30E9443
:101100009E06F9CFCF92DF92EF92FF920F931F933B
:10111000CF93DF937C016B018A01C0E0D0E00FC068
:10112000D6016D916D01D701ED91FC910190F08197
:10113000E02DC7010995C80FD91F015010400115B6
:10114000110571F7CE01DF91CF911F910F91FF90A3
:10115000EF90DF90CF900895DC01ED91FC9101902C
:10116000F081E02D09950895EF92FF920F931F9360
:101170008C01DC01ED91FC910190F081E02D6DE09E
:1011800009957C01D801ED91FC910190F081E02D51
:10119000C8016AE009959C012E0D3F1DC9011F91F0
:1011A0000F91FF90EF900895CF93DF93EC016115BD
:1011B000710519F420E030E00FC0DB010D90002034
:1011C000E9F71197A61BB70BE881F9810280F3813B
:1011D000E02DAD0109959C01C901DF91CF910895E2
:1011E0004F925F927F928F929F92AF92BF92CF92D7
:1011F000DF92EF92FF920F931F93DF93CF93CDB7C0
:10120000DEB7A1970FB6F894DEBF0FBECDBF2C019D
:10121000742ECB01223008F42AE019A231E2C32E49
:10122000D12CCC0EDD1E822E9924AA24BB24672D3E
:10123000752FA50194010E94F80979018A01C8015E
:10124000B701A50194010E94C609472D461B0894C9
:10125000C108D1084A3014F4405D01C0495CF60170
:101260004083E114F1040105110521F07E2C5F2D6E
:10127000C801DDCFC201B6010E94D408A1960FB605
:10128000F894DEBF0FBECDBFCF91DF911F910F91BC
:10129000FF90EF90DF90CF90BF90AF909F908F9096
:1012A0007F905F904F900895CF92DF92EF92FF92E0
:1012B0000F931F93CF93DF93EC016A017B012115FC
:1012C000310541F4E881F9810190F081E02D642F2E
:1012D00009951FC02A303105D1F477FF17C0E88186
:1012E000F9810190F081E02D6DE209958C01442790
:1012F0005527BA014C195D096E097F09CE012AE014
:101300000E94F0089801280F391F04C02AE00E94AB
:10131000F0089C01C901DF91CF911F910F91FF90BF
:10132000EF90DF90CF900895CF92DF92EF92FF92EF
:101330000F931F936C017B019A010027F7FC009526
:10134000102FB801A7010E9454098C01C6010E9408
:10135000B408080F191FC8011F910F91FF90EF905B
:10136000DF90CF900895EF92FF920F931F937C012F
:101370000E94D4088C01C7010E94B408080F191FED
:10138000C8011F910F91FF90EF900895629FD001C7
:10139000739FF001829FE00DF11D649FE00DF11D30
:1013A000929FF00D839FF00D749FF00D659FF00DDF
:1013B0009927729FB00DE11DF91F639FB00DE11DCC
:1013C000F91FBD01CF011124089597FB092E0726AF
:1013D0000AD077FD04D02ED006D000201AF47095E4
:1013E00061957F4F0895F6F7909581959F4F0895E9
:1013F000A1E21A2EAA1BBB1BFD010DC0AA1FBB1F19
:10140000EE1FFF1FA217B307E407F50720F0A21B8A
:10141000B30BE40BF50B661F771F881F991F1A94F7
:1014200069F760957095809590959B01AC01BD0121
:10143000CF010895AA1BBB1B51E107C0AA1FBB1F08
:10144000A617B70710F0A61BB70B881F991F5A9550
:10145000A9F780959095BC01CD010895EE0FFF1F6F
:101460000590F491E02D099411E0C2E6D1E004C0AA
:10147000FE010E94300A2296C436D107C9F7F894BB
:02148000FFCF9C
:10148200737472203100737472203200737472208C
:1014920033007374722034007374722035000D00AF
:1014A200000106010C011201180100000000900366
:1014B2008208760355035304420400000000DD074E
:0A14C20082087307A4078407CD0712
:00000001FF
